:100000000FE004B900EF0AB90E944D000E944300BE
:100010000E9476000E94430062E360FF01C003C0BB
:100020000E94EA0003C00E94C40000C0862FD5E0F1
:100030008D1B8D17ECF7882309F004C00E94A600E1
:100040000E9410010E94B6006A95603031F70E944C
:1000500043000E942601FDCF18EC28EC38E0000098
:100060001A951030E1F718EC2A952030C1F728ECEA
:100070003A953030A1F708955AE00E942C005A9525
:100080005030D9F7089550E055B95BB90E943C0053
:100090000E943C000E943C00089542E045B94BB9E3
:1000A0000E943C0043E045B94BB90E943C0040E04F
:1000B00045B94BB90E943C0046E045B94BB90E9496
:1000C0003C0042E045B94BB90E943C0045E045B9CF
:1000D0004BB90E943C0044E045B94BB90E943C003A
:1000E00040E045B94BB90E943C00089542E145B952
:1000F0004BB90E943C004BE145B94BB90E943C0012
:1001000043E045B94BB90E943C0008954FEF45B913
:100110004BB90E942C000E942C0008954FEF45B966
:100120004BB90E942C000E942C000E942C000E94BF
:100130002C000E942C000E942C00089540E045B93C
:100140004BB90E942C000E942C00089540E045B954
:100150004BB90E942C000E942C000E942C000E948F
:100160002C000E942C000E942C00089540E045B90C
:100170004BB90E943C000E942C000E942C000E945F
:100180002C000E942C0008950E9486000E949E0070
:100190000E948E000E949E000E9486000E94A6007F
:1001A0000E9486000E949E000E9486000E94A60077
:1001B0000E948E000E949E000E9486000E949E0067
:1001C0000E948E000E949E000E94860040E045B979
:1001D0004BB908950E948E000E949E000E948600E6
:1001E0000E949E000E948E000E949E000E94860037
:1001F0000E94A6000E9486000E949E000E94860027
:100200000E94A6000E9486000E949E000E948E000E
:100210000E949E000E94860040E045B94BB90895B7
:100220000E9486000E949E000E9486000E949E00FE
:100230000E9486000E949E000E9486000E949E00EE
:100240000E94860040E045B94BB9089541E045B9A8
:100250004BB90E942C0042E045B94BB90E942C00DA
:1002600044E045B94BB90E942C0048E045B94BB970
:100270000E942C0040E145B94BB90E942C0040E29D
:1002800045B94BB90E942C0040E445B94BB90E94D6
:100290002C0040E845B94BB90E942C0040E445B918
:1002A0004BB90E942C0040E245B94BB90E942C008A
:1002B00040E145B94BB90E942C0048E045B94BB923
:1002C0000E942C0044E045B94BB90E942C0042E04A
:1002D00045B94BB90E942C0041E045B94BB908958E
:1002E00041E045B94BB90E942C000E942C000895B2
:1002F00040E845B94BB90E942C000E942C0008959B
:1003000048E145B94BB90E942C000E942C00089589
:00000001FF
